:020000040800F2
:10000000B0040020010100081319000813140008AF
:100010001119000803050008451F00080000000032
:100020000000000000000000000000003719000878
:1000300025050008000000003519000839190008DE
:100040001B0100081B0100081B0100081B01000820
:100050001B0100081B0100081B0100081B01000810
:100060001B0100081B0100081B0100081B01000800
:100070001B0100081B0100081B0100081B010008F0
:100080001B0100081B0100081B0100081B010008E0
:100090001B0100081B0100081B0100081B010008D0
:1000A0001B0100081B0100081B0100081B010008C0
:1000B0001B0100081B0100081B0100081B010008B0
:1000C0001B0100081B0100081B0100081B010008A0
:1000D0001B0100081B0100081B0100081B01000890
:1000E0001B0100081B0100081B010008DFF80CD0F1
:1000F00000F0E6F90048004761220008B004002043
:100100000648804706480047FEE7FEE7FEE7FEE7B1
:10011000FEE7FEE7FEE7FEE7FEE7FEE78D190008D3
:10012000ED000008202A04DB203A21FA02F0002129
:10013000704721FA02F3D040C2F1200291400843F7
:1001400019467047D2B201E000F8012B491EFBD2DC
:1001500070470022F6E710B513460A4604461946D2
:10016000FFF7F0FF204610BD2DE9FE4F81EA0304A2
:1001700004F0004421F0004100944FF0000B23F004
:10018000004350EA01045ED052EA03045BD0C3F39B
:100190000A54C1F30A552C44A4F2F3340194A0FB91
:1001A0000254C1F3130141F48011C3F3130343F468
:1001B000801301FB024400FB034E840A970A44EAC1
:1001C000815447EA8357A4FB076802958D0A05FB13
:1001D00007854FEA932C04FB0C542705029D4FEA38
:1001E000065847EA1637B5EB08056EEB070C870E85
:1001F000920E47EA811742EA8312A7FB0201B6EB8F
:100200000B0164EB00042B0D43EA0C335E1844EB46
:100210001C50DA465146E7FB0201C5F313044FEACE
:100220000B3343EA14534FEA0432019C43EA0603BA
:10023000A4F10C040294009CCDE900B400F0F2F8A3
:1002400003B0BDE8F08F00200146F9E72DE9F04D3D
:1002500081EA030404F0004B21F0004514464FF0FE
:10026000000A23F0004150EA050220D054EA0102BE
:100270001DD0C5F30A570246C5F31303C1F313009B
:10028000C1F30A5640F4801543F48013A7EB060827
:10029000101BD64608F2FD3873EB050002D308F1B7
:1002A000010801E092185B41B8F1000F03DA002069
:1002B0000146BDE8F08D00204FF4801106468446CB
:1002C0000EE0171B73EB050705D3121B63EB050349
:1002D00006434CEA010C49084FEA300092185B4192
:1002E00050EA0107EDD152EA030012D082EA04007D
:1002F00083EA0501084305D0101BAB4106D2012259
:10030000002306E000224FF0004302E06FF00102FC
:1003100053101AEB06004CEB085110EB0A0041EBAE
:100320000B01BDE8F04D00F06EB80EB5C10F80EACC
:10033000E0700844CA07002140F233438DE80E0004
:100340000A460B4600F06EF803B000BD0EB540F251
:10035000334102910021CDE900110A460B4600F01D
:1003600061F803B000BD70B5C1F30A5201F0004559
:100370000024C1F3130140F2FF3341F480119A428B
:1003800001DA002070BD40F233439A42A2F23342B8
:1003900003DC5242FFF7C6FE00E090402C43F1D050
:1003A000404270BD2DE9F05F0546002092469B4615
:1003B00088460646814640241BE02846414647467B
:1003C0002246FFF7AFFE53465A46C01A914110D35A
:1003D00011461846224600F085F82D1A67EB0108F1
:1003E0004F4622460120002100F07CF817EB00095F
:1003F0004E41201EA4F10104DFDC484631462A4666
:100400004346BDE8F09F10B5141E73F1000408DAEE
:10041000401C41F1000192185B411A4301D120F0C8
:10042000010010BD2DE9F04D92469B4611B1B1FA85
:1004300081F202E0B0FA80F22032904600F052F8E9
:1004400004460F4640EA0A0041EA0B0153465A4669
:10045000084313D0114653EA010019D0C8F14002F5
:100460005046FFF75FFE05460E4650465946424647
:1004700000F038F8084305D0012004E02046394652
:10048000BDE8F08D0020054346EAE0762C43374373
:100490000A986305E40AA0EB08000022FD0A44EA7A
:1004A00047540A3002D500200146E9E7010510193A
:1004B0006941DDE9084500196941BDE8F04DA2E751
:1004C000064C074D06E0E06840F0010394E80700A1
:1004D00098471034AC42F6D3FFF70CFEE022000838
:1004E00000230008202A04DB203A00FA02F1002051
:1004F00070479140C2F1200320FA03F31943904062
:100500007047FEE700F010B8024901220A704870F7
:10051000704700001400002000B55220FFF7F4FFE0
:10052000002000BD7047704770B5044600F0F2F837
:100530000546601C02D004480078044400F0EAF844
:10054000401BA042FAD370BD040000202DE9F84FF3
:10055000DFF890A100220AF1040B144601274FF0A6
:100560000F090BF1040E00BF0B6807FA04F52B40CE
:10057000AB4274D1DFF870C14E68A6EB0C0866453B
:100580002BD00DDC032E34D005DC36B3012E19D070
:10059000022E2FD11BE0112E16D0122E2AD119E0D7
:1005A000B8F5881F19D006DCB8F5803F15D0B8F52E
:1005B000801F1FD111E0B8F5001F0ED0B8F5041F41
:1005C00018D10AE0CA6815E0CA68121D12E0CA68AC
:1005D00008320FE0CA680C320CE08A682AB1012A9E
:1005E0004FF0080203D0456104E0042202E00561F7
:1005F00000E00022FF2B01D8064601E000F10406CE
:100600004FEA840501D9A5F12005D6F800C009FA02
:1006100005F82CEA080C02FA05F54CEA050CC6F8B8
:1006200000C04D68ED0057D5304DAE6946F001066B
:10063000AE61AD6924F0030605F0010500952C4D6F
:1006400006EB050CDCF80850A6074FEA167809FA05
:1006500008F6B543274EB04202D1002610E03BE039
:10066000254EB04201D101260AE0244EB04201D10C
:10067000022605E0224EB04201D1032600E0042606
:1006800006FA08F62E43CCF808604D68DAF80060E8
:10069000ED03554601D51E4300E09E432E604D6894
:1006A000DBF80060AD035D4601D51E4300E09E43CC
:1006B0002E604D68DEF80060ED02754601D51E43E0
:1006C00000E09E432E604D68AD020E4D2E6801D5B0
:1006D0001E4300E09E432E60641C102CFFF444AFC8
:1006E000BDE8F88F00040140000011100010024026
:1006F0000000014000080140000C014000100140D2
:10070000001401400C0401408068084000D0012022
:100710007047000001488068704700000400002016
:1007200070B504001BD094F83D00002520B984F872
:100730003C50204600F042FA242084F83D00206816
:10074000016821F00101016000F0B0FB404A6168DE
:10075000914201D83F4900E03F49884201D201203F
:1007600070BD3E492368B0FBF1F159606368934264
:1007700006D94FF4967359434FF47A73B1FBF3F1F2
:100780002368491C19626168914210D84900401ED3
:10079000B0FBF1F2521CC2F30B02042A01D2042076
:1007A00022E0B0FBF1F0401CC0F30B001CE0A3689A
:1007B000CBB301EBC10202EB0116421EB2FBF6F213
:1007C000521C42F48042120536D06BB301EBC102D9
:1007D00002EB0111401EB0FBF1F0401CC0F30B0016
:1007E00040F4804040F400402168C861D4E907012A
:1007F000084321680860D4E9031008432168886031
:10080000D4E9050108432168C8602068016841F007
:10081000010101602564202084F83D00256384F8EF
:100820003E50002070BD00E008E001EB4106421E92
:10083000B2FBF6F2521CC6E70120D5E701EB4101FD
:10084000401EB0FBF1F0401CC0F30B00CAE70000F3
:10085000A086010080841E0000093D0040420F0078
:100860002DE9FF4F83B09A46DDE911879346044690
:10087000DDF84090FFF74EFF054694F83D00202834
:1008800072D1192301227B492046009500F0F5FE24
:100890000028F5D194F83C00012865D0012084F8A7
:1008A0003C0020680168C90703D1016841F00101DB
:1008B00001602068016821F400610160222084F851
:1008C0003D00402084F83E0000262664C4F82490B1
:1008D000A4F82A806848E062608D2085CDE9007523
:1008E00053465A462046049900F0D8FD28B1206CA2
:1008F00084F83C60042851D075E0208DDFF87C81BD
:1009000068B1012814D00228206801681ED041F483
:100910008061016020684169806900909BE02068E7
:10092000416981690091016841F40071016092E0C0
:100930002068016821F48061016072B62068416915
:1009400081690091016841F400710AE041F400619D
:10095000016072B62068416981690091016821F4E3
:100960008061016062B676E081E0032850D80128FA
:100970000BD002283B464FF000024146204600952E
:1009800012D000F07AFE70BB13E02A4639462046AA
:1009900000F0E8FE30B1206C202824D0012007B000
:1009A000BDE8F08F20684BE000F067FED8B972B662
:1009B0001BE02068016821F48061016072B6206844
:1009C0000169606A421C62620170208D401E2085B0
:1009D000608D401E60853B460022414620460095C2
:1009E00000F04BFE08B10320D9E72068016841F40C
:1009F0000071016020680169606A421C62620170D6
:100A0000208D401E2085608D401E608562B6C9E73E
:100A10002A463946204600F0A5FE0028BBD12068B2
:100A20000169606A421C62620170208D401E20854F
:100A3000608D401E608520684169C94349070AD41A
:100A40000169606A421C62620170208D401E20852F
:100A5000608D401E6085208D002886D1202084F87E
:100A60003D0084F83E6084F83C60002097E7022057
:100A700095E70000020010000000FFFF04000100E5
:100A80002DE9FF4F83B09A46DDE91187934604466E
:100A9000DDF84090FFF73EFE064694F83D00202822
:100AA0007DD11923012243492046009600F0E5FD3F
:100AB00000287CD194F83C00012878D0012084F8EB
:100AC0003C0020680168C90703D1016841F00101B9
:100AD00001602068016821F400610160212084F830
:100AE0003D00402084F83E0000252564C4F8249091
:100AF000A4F82A803048E062608D2085CDE9007638
:100B000053465A462046049900F040FD80B3206CBD
:100B100084F83C50042848D008E032463946204644
:100B200000F051FE30B1206C042839D0032007B00A
:100B3000BDE8F08F606A411C61622168007808613D
:100B4000208D401E80B22085618D491E61852168FF
:100B50004A69D24352070BD468B1606A421C626290
:100B600000780861208D401E2085608D401E6085C4
:100B7000208D0028D1D132463946204600F056FD5E
:100B80000028D0D154F83D0B016841F40071016098
:100B9000202004F81E09E57765770020C7E706E006
:100BA0002068016841F4007101600120BFE7022064
:100BB000BDE70000020010000000FFFF10B586B086
:100BC000002100910191029103910068134988422C
:100BD00022D1134CA06940F00800A061A0696946C9
:100BE00000F0080004904FF4407000901220019033
:100BF000032003900B48FFF7A9FC0B48416841F024
:100C0000E06141F002014160E06940F40010E06100
:100C1000E06900F40010049006B010BD00540040DC
:100C200000100240000C01400000014002488168B1
:100C3000027811448160704704000020074810B515
:100C4000016841F010010160032000F067F8002006
:100C500000F006F800F024F8002010BD002002404B
:100C600070B50D4D04464FF47A712878B1FBF0F061
:100C70000A490968B1FBF0F000F0F0FA48B9102C0D
:100C800007D200222146501E00F028F800206C6098
:100C900070BD012070BD0000040000201000002085
:100CA0000C4808B5816941F001018161816901F059
:100CB00001010091C16941F08051C161C06900F03A
:100CC000805000900448416821F0E06141F00071DB
:100CD000416008BD0010024000000140F0B40E4B1E
:100CE0001B680C46C3F30223C3F10705042D00D98A
:100CF0000425191D072901D2002300E0DB1E01266F
:100D000006FA05F1491E214099409E40761E164084
:100D10003143F0BC00F0FEBD0CED00E0064900F0F0
:100D2000070208684FF6FF03184040EA0220034A12
:100D300010430860704700000CED00E00000FA0569
:100D40002DE9F047DFF8548105460E46D8F800003B
:100D500000F00700B0420CD2D8F8001021F00701D3
:100D60003143C8F80010D8F8000000F00700B04286
:100D70006FD128684A4C810712D5400703D56068B7
:100D800040F4E06060602878000703D5606840F4B4
:100D9000605060606068A96820F0F00008436060FF
:100DA0002878C00744D06868012816D02168022836
:100DB00016D0890700294CDA616821F0030101434C
:100DC0006160FFF7A7FC6968074641F28830012996
:100DD0000ED00229814618D026E021688903E9E770
:100DE0008901E7E7FFF796FCC11B494501D918E0E7
:100DF00081466068C0F381000128F3D118E000BF8C
:100E0000FFF788FCC11B49450BD86068C0F381001F
:100E10000228F5D10CE000BFFFF77CFCC11B49455F
:100E200002D90320BDE8F087606810F00C0FF3D101
:100E3000D8F80010404601F00701B1420BD9016813
:100E400021F0070131430160006800F00700B04263
:100E500001D00120E6E72878400705D56068E968F9
:100E600020F4E060084360602878000706D56068D9
:100E7000296920F4605040EAC100606000F036F853
:100E80006168084AC1F30311515CC8400649086013
:100E90000020FFF7E5FE0020C4E70000002002402C
:100EA00000100240C8220008100000200448054934
:100EB00000684968044AC1F30221515CC840704788
:100EC0001000002000100240D82200080448054904
:100ED00000684968044AC1F3C221515CC8407047A8
:100EE0001000002000100240D822000812A185B096
:100EF0000FC98DE80F0014A0144A006804905168CF
:100F0000134801F00C03042B10D0082B0ED1C1F3B1
:100F10008343C9031DF803000AD5516804AAC1F32D
:100F20004041515C0A4A5043B0FBF1F005B07047B4
:100F300008494843FAE700000203040506070809C8
:100F40000A0B0C0D0E0F10100102000000100240E1
:100F500000127A0000093D002DE9F84F04460078A0
:100F6000B94DC00748D06868C0F38100012807D098
:100F70006868C0F38100022809D16868C00306D5FB
:100F80002868800338D5606800286FD034E0606836
:100F9000B0F5803F0BD010B1B0F5A02F11D028686C
:100FA00020F480302860286820F4802002E028683F
:100FB00040F480302860606888B1FFF7ABFB0646DC
:100FC00009E0286840F480202860F0E7FFF7A2FBE2
:100FD000801B642875D828688003F7D50CE0FFF7DC
:100FE00099FB064605E000BFFFF794FB801B6428D1
:100FF000F0D828688003F7D42078944E80074FF00B
:1010000001094FF000083BD5686810F00C0F07D0BD
:101010006868C0F38100022809D16868C00306D45B
:101020002868800714D5206901281FD110E02069A5
:10103000B0B1C6F80090FFF76DFB074605E000BFB2
:10104000FFF768FBC01B0228C4D828688007F7D5C3
:101050002868616920F0F80040EAC10028600FE0CC
:10106000C6F80080FFF756FB074606E0E9E000BF40
:10107000FFF750FBC01B022823D828688007F7D44D
:10108000207800072CD57248A169D9B1C0F800902A
:10109000FFF740FB074604E0FFF73CFBC01B0228BC
:1010A0000FD8686A8007F7D56A484FF4FA5100688C
:1010B000B0FBF1F0009000BF0098411E0091FAD201
:1010C0000EE080E0C0F80080FFF724FB074604E054
:1010D000FFF720FBC01B022875D8686A8007F7D489
:1010E0002078400760D5E8690027C00008D4E86987
:1010F00040F08050E861E869012700F080500090DE
:1011000055480168C90513D40168834641F48071CC
:101110000160FFF7FFFA824606E000BFFFF7FAFA28
:10112000A0EB0A0064284ED8DBF80000C005F5D516
:10113000E06801280AD008B1052813D0286A20F0F9
:1011400001002862286A20F0040002E0286A40F0CA
:1011500001002862E06841F2883B98B1FFF7DAFAB3
:1011600082460BE0286A40F004002862EEE700BFE8
:10117000FFF7D0FAA0EB0A0159455AD8286A800730
:10118000F6D50CE0FFF7C6FA824605E0FFF7C2FA93
:10119000A0EB0A0159454CD8286A8007F6D41FB144
:1011A000E86920F08050E861E06988B36968C1F3BC
:1011B0008101022945D00228C6F8608004D0FFF7DB
:1011C000A9FA044638E034E0FFF7A4FA074604E041
:1011D000FFF7A0FAC01B02282BD828688001F7D49B
:1011E000206AB0F5803F05D16868A16820F400301E
:1011F00008436860D4E908010843696821F4741160
:1012000008436860C6F86090FFF784FA044606E079
:1012100015E000BFFFF77EFA001B022809D82868F6
:101220008001F7D50BE000BFFFF774FA001B02281E
:1012300002D90320BDE8F88F28688001F4D400208B
:10124000F8E70120F6E700000010024000004242EB
:1012500080044242100000200070004010B5401E83
:10126000B0F1807F01D3012010BD4FF0E024606118
:101270000F21601700F04EFB0020A06107202061C5
:10128000002010BD70B5040004D094F8390000258A
:1012900010B106E0012070BD84F83850204600F0FF
:1012A00023F8242084F839002068C16821F4005113
:1012B000C160204600F05CFD2068016921F4904186
:1012C00001612068416921F02A0141612068C168FB
:1012D00041F40051C160E563202084F8390084F8AE
:1012E0003A00002070BD000030B585B000240094A5
:1012F00001940294039400681449884223D114484D
:10130000C16941F40031C161C16901F40031049146
:10131000816941F00401816180690E4D00F0040093
:10132000049004200090022001900320039069465D
:101330002846FFF70BF90820CDE900046946284646
:101340000294FFF703F905B030BD000000440040EF
:1013500000100240000801402DE9F843044690F8CF
:1013600039001F4616460D46202850D1A5B19EB122
:1013700094F8380001284AD0012084F838004FF052
:101380000008C4F83C80212084F83900FFF7C2F936
:10139000A6848146E68426E00120BDE8F883E08C3F
:1013A000401EE084A0684B46B0F5805F4FF000021D
:1013B0004FF080012046009703D000F091FDE8B97E
:1013C0000DE000F08DFDC8B928882168C0F3080041
:1013D0004860206908B16D1C05E0AD1C03E0216880
:1013E00015F8010B4860E08C0028D8D14B4600224C
:1013F00040212046009700F073FD08B10320CCE7A0
:10140000202084F8390084F838800020C5E70220C5
:10141000C3E7FEE701684A69D24352050CD46FF472
:1014200080624A6104210164002140F8301F2022BB
:101430004273017301207047002070471FB50021DF
:1014400003912023012203A98DE80E0013460246D2
:10145000044841780448491CFFF702FA9DF80C0043
:1014600004B010BD140000201C0000201FB5002196
:1014700003912023022203A98DE80E0002460548AD
:10148000012341780448491CFFF7EAF9BDF80C0034
:1014900004B010BD140000201C0000202DE9F84FFE
:1014A0000446006889460B9D01689846174641F43A
:1014B000806101602068016841F4807101600095DD
:1014C0004FF0011A0022514620460A9B00F0D5F841
:1014D000F0BB216809F0FE0008610AF1010B2B4600
:1014E000594620460A9A00F0F9F818B1206C0428F1
:1014F00012D03AE020684169806900902A4620466F
:101500000A9900F060F950B1206C04282DD12068B0
:10151000016841F4007101600120BDE8F88FFEB25E
:10152000B8F1010F09D02168380A08612A4620461F
:101530000A9900F048F90028E6D1206806612A4699
:1015400020460A9900F03FF90028DDD1206800E02C
:101550000BE0016841F48071016000950022514662
:1015600020460A9B00F089F808B10320D5E72168DE
:1015700009F0FF0040F0010008612B465946204663
:101580000A9A00F0ABF80028B0D1C6E72DE9F8437D
:10159000044600680D46DDE908970168984616463E
:1015A00041F4807101604B4600224FF0011120464A
:1015B000009700F062F8E8B9216805F0FE000861C4
:1015C0003B464A461849204600F088F828B1206C6E
:1015D00004280FD10120BDE8F883206841698069A3
:1015E00000903A464946204600F0EDF820B1206CC4
:1015F000042813D00320EEE7F5B2B8F1010F09D0AB
:101600002168300A08613A464946204600F0DBF876
:101610000028ECD1206805610020DCE72068016823
:1016200041F400710160D5E70200010070B5164673
:101630000D4604461AE02046FFF7ECFE08B10120F3
:1016400070BD681C12D025B1FFF764F8801BA8425A
:101650000CD954F8400F40F0200044F81009002045
:101660002060202161732073032070BD20684069D1
:10167000C0434007DFD4002070BD2DE9F0471E466F
:1016800090460D460446C1F30747DDF8209012E06E
:10169000701C10D02EB1FFF73DF8A0EB0900B0424E
:1016A00009D9002044F8300F20216173A073207302
:1016B0000320BDE8F0872068012F0AD0806925EA61
:1016C00000000004000C06D000214145E0D00020BD
:1016D000EFE74069F3E70121F7E700002DE9F04764
:1016E0009A4691460D46044600264FF02008C1F365
:1016F00007472AE020684069C043400512D42068AB
:10170000016841F40071016021686FF480604861F4
:1017100004202064266384F83D8084F83C60012026
:10172000BDE8F087B9F1FF3F0FD0B9F1000F05D048
:10173000FEF7F0FFA0EB0A01494506D944F8306FE7
:1017400084F80D8026730320EAE72068012F07D074
:10175000D0F8180025EA00000004000CE0D0C9E72A
:101760004069F7E72DE9F041002590460E46044612
:10177000202721E04069C043C0060CD421686FF0E7
:10178000100048612564256384F83D7084F83C505E
:101790000120BDE8F0812EB1FEF7BCFFA0EB0800F0
:1017A000B04209D954F8400F40F0200044F8040931
:1017B000677025700320ECE720684169C94349063A
:1017C000D8D40020E5E770B516460D4604461AE069
:1017D0002046FFF71FFE08B1012070BD681C12D023
:1017E00025B1FEF797FF801BA8420CD954F8400F93
:1017F00040F0200044F8100900202060202161738F
:101800002073032070BD20684069C0430006DFD408
:10181000002070BD1FB5002203928DF80C1020230C
:10182000012203A98DE80E001346024602484178C2
:101830000248FFF725F91FBD140000201C000020FE
:1018400000B585B000200190029003901048816996
:1018500041F020018161816901F0200104918169D9
:1018600041F004018161816901F004010491816901
:1018700041F0080181618069694600F00800049028
:101880004FF4007000900348FEF760FE05B000BD05
:1018900000100240000801400D4810B50B490160DE
:1018A0000C49416000214FF480428160C0E903127D
:1018B00041618161C1610162FEF732FF002803D0FE
:1018C000BDE81040FEF72FBE10BD000000540040E0
:1018D0001C000020A08601000C4810B50A490160D8
:1018E0004FF4E1314160002181600C22C160C0E908
:1018F00004128161C161FFF7C5FC002803D0BDE877
:101900001040FEF710BE10BD0044004070000020E3
:10191000FEE770470907090E002806DA00F00F00FD
:1019200000F1E02080F8141D704700F1E02080F8FD
:101930000014704770477047FFF778B930B58FB023
:1019400028216846FEF705FC14210AA8FEF701FCD1
:1019500001210804CDE9001000240294022504911D
:10196000CDE907504FF4E01009906846FFF7F4FA0C
:101970000F20CDE90A056802CDE90C4002210AA832
:101980000E94FFF7DDF90FB030BD00000D4801687F
:1019900041F00101016041680B4A1140416001685A
:1019A0000A4A11400160016821F480210160416808
:1019B00021F4FE0141604FF41F0181600449C0031E
:1019C00008607047001002400000FFF8FFFFF6FEBD
:1019D00008ED00E00021084600F0C6B99321002080
:1019E00000F0C2B910B5012000F02CF8024900F057
:1019F0003000087010BD00000000002010B552201B
:101A0000FEF782FD122000F01DF8014609A000F04B
:101A10009BFAFFF7E3FF102000F056F9012000F0D9
:101A20007BF901210C2000F09FF9FFF7D3FF002084
:101A300010BD00004944203D2030782558200D0A73
:101A40000000000010B540F0A000FFF7F7FCC0B2A6
:101A500010BD142000F0B4B8162000F0B1B800009A
:101A60002DE9F047FFF7BAFF0024444D04E064205D
:101A7000FEF748FD641CE4B26878801C8442F6D30B
:101A80004FF400713E48FEF73FFE012844D03DA0D0
:101A900000F05AFAFFF7DDFF0746FFF7DDFF0646C5
:101AA000FFF798FFFFF79AFF1321E72000F05CF99A
:101AB000FFF790FF6878642200EBC00101EB001192
:101AC000A84602EB810948B34FF6FF70874201D266
:101AD000864216D3FFF786FF18B3000900011038BD
:101AE000C0B200F0F1F800BFFFF7B3FF0746FFF701
:101AF000B3FF0646002FF7D0002EF5D06420FEF786
:101B000001FD98F800000024204D10280FD0202857
:101B100010D0302811D012E01DA0B9E748F6FF70B0
:101B2000D4E71DA000F010FA0020BDE8F0870024E3
:101B30001F4D04E000241F4D01E01F4D00244FF015
:101B400000084846FEF702FC22462B46FEF70CFB37
:101B500000221A4BFEF77AFB044670420D4607EB53
:101B60004000FEF7E2FB22462B46FEF76FFBFEF736
:101B7000FAFB0004000CD8D14046D6E70000002054
:101B800000080140494E5420310D0A000000F03F8A
:101B9000494E5420300D0A004E756D6572696361BF
:101BA0006C206F766572666C6F77212F722F6E00D6
:101BB0000000394000C07A40004AC34000D087404E
:101BC00010B540F0A000FFF751FC80B210BD00003E
:101BD0002DE9F041804636480E46002441780078D1
:101BE00001EBC10202EB01116422324D02EB8101D3
:101BF000102804D0202805D0302806D007E0002483
:101C00002D4D04E000242D4D01E02D4D002408460B
:101C1000FEF79CFB22462B46FEF7A6FA0022294B34
:101C2000FEF714FB0D460446FFF716FF0746304645
:101C3000FEF78CFB22462B46FEF796FAFEF793FB47
:101C400000EB4700401E86B24046FEF77FFB22466F
:101C50002B46FEF789FAFEF786FB00EB4700401C97
:101C600084B2FFF7BBFEE1B2042000F07DF8210A48
:101C7000052000F079F8F1B2062000F075F8310A7D
:101C8000072000F071F80021082000F06DF8002115
:101C9000092000F069F8FF210A2000F065F8FF2113
:101CA0000B2000F061F8BDE8F041FFF793BE0000A3
:101CB000000000200000F03F0000394000C07A40E2
:101CC000004AC34000D0874010B504000AD0102C51
:101CD00008D0202C06D0302C04D0BDE8104007A03E
:101CE00000F032B90120FFF7ADFE00F0CF01214333
:101CF000012000F039F80748047010BD4761696E93
:101D000020506172616D65746572204572726F72E8
:101D10000D0A00000000002010B5044606280BD272
:101D20000120FFF78FFE00F0F8012143012000F0B1
:101D30001BF80448447010BDBDE8104002A000F03C
:101D400003B9000000000020496E74656772616C81
:101D50002054696D6520506172616D6574657220F3
:101D60004572726F720D0A0040F0A000FFF752BD7D
:101D70002DE9F041044600680169E26821F4405110
:101D8000114301612169A068084361690843216822
:101D9000CA6841F20C639A430243CA6020684169F1
:101DA000A26921F44071114341614C4920686425C6
:101DB000322688423CD1FFF789F800EBC00101EBE5
:101DC000001061688900B0FBF1F7FFF77FF800EBC6
:101DD000C00101EB00106168B0468900B0FBF1F072
:101DE000B0FBF5F06FF01801484307EB800106EBFC
:101DF0000110B0FBF5F000F0F006FFF767F800EB1C
:101E0000C00101EB001061688900B0FBF1F0B0FB8C
:101E1000F5F006EB0016FFF759F800EBC00101EBF7
:101E2000001061688900B0FBF1F7FFF74FF83BE065
:101E3000FFF73CF800EBC00101EB0010616889007E
:101E4000B0FBF1F7FFF732F800EBC00101EB001037
:101E50006168B0468900B0FBF1F0B0FBF5F06FF0BF
:101E60001801484307EB800106EB0110B0FBF5F0C9
:101E700000F0F006FFF71AF800EBC00101EB0010CC
:101E800061688900B0FBF1F0B0FBF5F006EB0016DD
:101E9000FFF70CF800EBC00101EB0010616889004E
:101EA000B0FBF1F7FFF702F800EBC00101EB001007
:101EB00061688900B0FBF1F0B0FBF5F06FF018013C
:101EC000484307EB800108EB0110B0FBF5F02168F7
:101ED00000F00F0030448860BDE8F0810038014018
:101EE0002DE9F041984617460E460446069D1DE032
:101EF000681C1BD02DB1FEF70DFCA0EB0800A8421A
:101F000014D92068C16821F4D071C160206841698A
:101F100021F001014161202084F8390084F83A0061
:101F2000002084F838000320BDE8F08120680068B4
:101F300036EA000004D00020B842D9D00020F3E7F0
:101F40000120F9E7FEE700000FB4054B10B503A927
:101F5000044A029800F018F810BC5DF814FB000069
:101F6000492200081800002002E008C8121F08C11A
:101F7000002AFAD170477047002001E001C1121F0A
:101F8000002AFBD1704700002DE9FF4F8DB09B4622
:101F90000F460446002606E025280BD05A460F9926
:101FA0009047641C761C20780028F5D111B030468B
:101FB000BDE8F08F0025A8460122984900E00543BE
:101FC00014F8013F203B02FA03F00842F7D12078D1
:101FD0002E2817D114F8010F45F004052A280ED039
:101FE0006FF02F022078A0F1300109290AD808EB00
:101FF000880102EB410100EB0108641CF2E757F88D
:10200000048B641C20786C280DD004DC4C2812D082
:102010006A2811D104E074280DD07A280CD10AE086
:1020200045F4001507E0617845F48015814202D13E
:10203000641C05F58015641C2278692A45D008DCEB
:10204000002AB3D0582A69D0632A10D0642A08D154
:102050003BE0702A67D0732A13D0752A5CD0782AA7
:102060005CD010465A460F999047761CD3E017F87B
:10207000040B8DF8000000208DF80100E9460120D6
:1020800003E057F8049B4FF0FF3069074FF000055D
:1020900001D40AE06D1C45450DDA8542FADB19F8DA
:1020A00005100029F6D106E06D1C8542FCDB19F80D
:1020B00005100029F8D12E4404E019F8010B5A4606
:1020C0000F9990476D1EF8D2A5E00A200021CDE9B6
:1020D0000801C5F3025002280DD001CFC117031E1D
:1020E00071F100030DDA4FF0000CD0EB0C006CEB3B
:1020F00001012D2308E0FF1D27F00707F7E8020183
:10210000EDE72B0504D52B238DF8283001233BE088
:10211000EB0739D02023F7E70A2000E01020002148
:10212000CDE9080107E01020002145F00405CDE9C4
:1021300008014FF00808C5F3025002280FD001CF64
:1021400000214FF0000A2B071FD5702A0DD0DDE9C2
:1021500008C38CF0100C5CEA030C0CD015E0FF1DDA
:1021600027F00707F7E80201EBE740228DF8282067
:102170004FF0010A0BE050EA010306D030238DF83E
:1021800028308DF8292002239A46582A04D024A208
:102190000DF120090B9209E026A2F9E7DDE90823F9
:1021A000FEF700F90B9B9B5C09F8013D50EA010228
:1021B000F4D1ADEB090020300890680701D44FF04E
:1021C00001080899884502DDA8EB010000E0002025
:1021D0008046002506E00AA85A46405D0F999047C0
:1021E0006D1C761C5545F6DB04E030205A460F99ED
:1021F0009047761CB8F10001A8F10108F5DC05E074
:1022000019F8010B5A460F999047761C0899481EF9
:1022100008900029F4DC641CC5E6000009280100D0
:10222000303132333435363738396162636465664C
:10223000000000003031323334353637383941420E
:10224000434445460000000013B54FF6FF730122DA
:1022500069460248FFF780F800981CBD7000002016
:10226000FEF7ECFCFFF76AFBFFF7EAFAFFF714FB57
:10227000FFF732FB0AA0FFF767FEFEF74DF9FFF705
:10228000BDFB00BFFFF7ECFB01460CA0FFF75CFEB7
:10229000C8213220FFF79CFC0AA0FFF755FEF1E7AA
:1022A00054534C323539315F4C696768745F5365FC
:1022B0006E736F7220436F64650D0A004C75782051
:1022C0003D2025640D0A0000000000000000000011
:1022D00001020304060708090000000001020304CC
:1022E00000230008000000201C000000681F0008F8
:1022F0001C2300081C00002094040000781F000824
:1023000000000000010000001000000000000000BC
:0C23100000A24A040000000000000000D1
:04000005080000ED02
:00000001FF
